:020000040000FA
:06000000A8EF20F0120041
:020006001200E6
:08000800A19CB4BC1100C282EE
:060010005CEF17F0120086
:020016001200D6
:060018002FEF18F01200AA
:02001E000100DF
:0C0020009E410000A00400001D00000034
:04002C00D9CFE6FF43
:10003000E1CFD9FF100EE126D9CFE9FFDACFEAFFF1
:100040004C0EEE6E6F0EEE6E770EEE6E200EEE6EB6
:10005000620EEE6E610EEE6E740EEE6EEE6E650E5C
:10006000EE6E720EEE6E790EEE6EEE6A0401040E06
:10007000BB6F0C0EDB6A0D0EDB6A0C0EDBCF14F0CF
:100080000D0EDBCF15F0D890155004E63C0E145C35
:10009000000E155811E20C0EDBCFE9FF0D0EDBCF81
:1000A000EAFFA10EE926000EEA22EF6A0C0EDB2A17
:1000B0000D0E01E3DB2AE1D70C0EDB6A0D0EDB6AC5
:1000C0000C0EDBCF14F00D0EDBCF15F0D8901550D1
:1000D00004E60A0E145C000E155815E20C0EDBCF78
:1000E000E9FF0D0EDBCFEAFFD890E936EA36DD0EE8
:1000F000E926000EEA22EE6AED6A0C0EDB2A0D0EEE
:1001000001E3DB2ADDD704EC0EF0000EE66EE66AB2
:10011000AAEC0BF0E552E552F8EC0DF093809D9CB3
:10012000020EC16EC26A910EC06EC280949094920B
:1001300082908282949E829EF29ED08EA28A050E2A
:10014000D56E670ED76E6A0ED66EF28AF194D58E92
:10015000100ECD6ECF6ACE6A9D809F909280928263
:1001600092849286040EB46EA28CA08CF28CE00E67
:10017000CB6E800EBE6E94948294CA92CA80CA845A
:10018000BD96BD94BD92BD9084B602D00401B86BFB
:10019000C284C282C2B2FED7C450146E14C015F01D
:1001A000146AC35004011410B66F15C0B7F4C2949A
:1001B000100EE15C02E2E16AE552E16EE552E7CF42
:1001C000D9FF1200D9CFE6FFE1CFD9FF420EE126D9
:1001D000D9CFE9FFDACFEAFF440EEE6E650EEE6E80
:1001E000740EEE6E610EEE6E630EEE6E680EEE6EC7
:1001F000650EEE6E640EEE6E200EEE6EEE6EEE6A24
:10020000D9500B0FE96EDACFEAFF410EEE6E740E95
:10021000EE6EEE6E610EEE6E630EEE6E680EEE6EBC
:10022000650EEE6E640EEE6E200EEE6EEE6EEE6AF3
:10023000D950160FE96EDACFEAFF500EEE6E6F0E50
:10024000EE6E770EEE6E650EEE6E720EEE6E650E53
:10025000EE6E640EEE6E200EEE6EEE6EEE6EEE6ADA
:10026000D950210FE96EDACFEAFF440EEE6E650E2B
:10027000EE6E660EEE6E610EEE6E750EEE6E6C0E2E
:10028000EE6E740EEE6E200EEE6EEE6EEE6EEE6A9A
:10029000D9502C0FE96EDACFEAFF410EEE6E640EF4
:1002A000EE6EEE6E720EEE6E650EEE6E730EEE6E0E
:1002B000EE6E200EEE6EEE6EEE6EEE6AD950370FD9
:1002C000E96EDACFEAFF430EEE6E6F0EEE6E6E0E43
:1002D000EE6E660EEE6E690EEE6E670EEE6E750ECB
:1002E000EE6E720EEE6E650EEE6E640EEE6EEE6AE1
:1002F0000001FB5115E1000EE66EE66A010EE66EA6
:10030000E66AD2EC0BF0E552E552E552E552D9CF60
:10031000E6FFDACFE6FF0EEC0CF0E552E55280D0B6
:10032000FB0517E1000EE66EE66A010EE66EE66A70
:10033000D2EC0BF0E552E552E552E552D9500B0FE5
:10034000E66E000EDA20E66E0EEC0CF0E552E55299
:1003500067D0020EFB5D17E1000EE66EE66A010E45
:10036000E66EE66AD2EC0BF0E552E552E552E55254
:10037000D950160FE66E000EDA20E66E0EEC0CF089
:10038000E552E5524DD0030EFB5D17E1000EE66E1F
:10039000E66A010EE66EE66AD2EC0BF0E552E55233
:1003A000E552E552D950210FE66E000EDA20E66ED6
:1003B0000EEC0CF0E552E55233D0050EFB5D17E173
:1003C000000EE66EE66A010EE66EE66AD2EC0BF00F
:1003D000E552E552E552E552D9502C0FE66E000E7B
:1003E000DA20E66E0EEC0CF0E552E55219D0060E5E
:1003F000FB5D16E1000EE66EE66A010EE66EE66A49
:10040000D2EC0BF0E552E552E552E552D950370FE8
:10041000E66E000EDA20E66E0EEC0CF0E552E552C8
:10042000420EE15C02E2E16AE552E16EE552E7CF9D
:10043000D9FF1200F29E84B613D00401A26BA36B05
:10044000F8EC0DF00401A66BA76BAA6BAB6BAC6B61
:10045000AD6BAE6BAF6BB06BB16B010EB26FB36BCC
:10046000F28E120084B60ED00401BC5101E01FD000
:10047000010EBC6FBB2B030EE76EBB19E8AE07D0B5
:10048000BB3508D00401BC5101E0BC6B10D0E75073
:10049000D880BB5501E2BB6BBB5103E0020EBB5DD4
:1004A00003E1010EB96F01D0B96BF8EC0DF0120049
:1004B0000401010EB21901E1B35108E1B42B000EA1
:1004C000B523B26BB36BB53506E201D063D0B4513E
:1004D0001308000EB55502E2B46BB56BB53504E2F6
:1004E000B4510F08000EB5550AE3C290D392D390D1
:1004F0008E0EC06E060ED56ED58EC2804BD0100EFD
:10050000B41901E1B5510DE1C290D382D380D38CEF
:10051000D38AD388910EC06E040ED56ED58EC2805C
:1005200039D0110EB41901E1B5510DE1C290D38259
:10053000D380D38CD38AD398940EC06E030ED56E1D
:10054000D58EC28027D0120EB41901E1B5510DE14C
:10055000C290D382D380D38CD39AD388900EC06EAE
:10056000020ED56ED58EC28015D0130EB5AF02D057
:10057000D89003D0B45D000EB5590CE3C290D3827D
:10058000D380D38CD39AD398930EC06E010ED56EC0
:10059000D58EC2801200D9CFE6FFE1CFD9FF270E5A
:1005A000E126060E0001FB5D03E0020EFB5D02E1A9
:1005B000F28E01D0F29E56DFFF0E0401A01902E177
:1005C000030EA11902E01DEF0AF0B85102E1F8EFA5
:1005D00008F048DF0401D890B75104E6070EB65D75
:1005E000020EB75902E2BA6B23D0D890B75104E695
:1005F0002A0EB65D020EB75903E2010EBA6F18D08B
:10060000D890B75104E64D0EB65D020EB75903E21D
:10061000020EBA6F0DD0D890B75104E66F0EB65DDA
:10062000020EB75903E2030EBA6F02D0040EBA6F7E
:10063000B95106E0050EF36E100EF3CFDBFF05D0C7
:10064000060EF36E100EF3CFDBFF080EBA25E76E31
:10065000110EE7CFDBFF120EDB6A0E0EE66EE66AC6
:10066000000EE66EE66AD2EC0BF0E552E552E5527A
:10067000E552D950100FE66E000EDA20E66E0EEC51
:100680000CF0E552E552150EDB6A160EDB6A130E0E
:10069000DB6A140EDB6A130EDBCF14F0140EDBCF13
:1006A00015F03C0E145C000E15581CE2130EDBCF47
:1006B000E9FF140EDBCFEAFFA10EE926000EEA22C5
:1006C000EF50146E156AD950150FE96EDACFEAFFB4
:1006D0001450EE261550ED22130EDB2A140E01E302
:1006E000DB2AD9D7190EDB6A1A0EDB6A130EDB6A16
:1006F000140EDB6A130EDBCF14F0140EDBCF15F0F3
:100700000A0E145C000E155823E2130EDBCFE9FF2E
:10071000140EDBCFEAFF010ED890E936EA36E80680
:10072000FBE1DD0EE926000EEA22EECF14F0EFCF5A
:1007300015F0D950190FE96EDACFEAFF1450EE2602
:100740001550ED22130EDB2A140E01E3DB2AD2D75B
:100750000401BB5103E0BB0501E093D2150EDBCFD2
:1007600014F0160EDBCF15F00A0E145C000E1558AF
:1007700044E3150EDBCF06F0160EDBCF07F0086A58
:10078000096A820E0B6E030E0C6E0D6A0E6AE1ECA6
:100790001FF002C006F003C007F004C008F005C057
:1007A00009F0E80E0B6E030E0C6E0D6A0E6A99ECE2
:1007B0001EF0170E06C0DBFF180E07C0DBFF000E91
:1007C000E66EE66AE66EE66AD2EC0BF0E552E552BA
:1007D000E552E552010EE66EE66A050EE66EE66A41
:1007E000170EDBCFE6FF180EDBCFE6FFE5EC0CF0D3
:1007F000146E060EE15E14506CD1A2C414F0A3C4B2
:1008000015F03C0E0D6E0E6A14C008F015C009F00C
:1008100070EC20F004C014F005C015F01D0E14C0DB
:10082000DBFF1E0E15C0DBFF0401580EA25D020E99
:10083000A3590BE21F0EA2C4DBFF200EA3C4DBFFF3
:10084000210EDB6A220EDB6A1CD01D0EDBCF14F0FA
:100850001E0EDBCF15F0580E1426020E1522166A56
:10086000176A15AE02D0166817681F0E14C0DBFF9A
:10087000200E15C0DBFF210E16C0DBFF220E17C0B5
:10088000DBFF150EDB6A160EDB6A130EDB6A140E35
:10089000DB6A130EDBCF14F0140EDBCF15F01D0E48
:1008A000DBCF16F01E0EDBCF17F01650145C17507E
:1008B00015581CE2130EDBCFE9FF140EDBCFEAFF65
:1008C000A10EE926000EEA22EF50146E156AD950E7
:1008D000150FE96EDACFEAFF1450EE261550ED221F
:1008E000130EDB2A140E01E3DB2AD3D71F0EDBCF56
:1008F00007F0200EDBCF08F0210EDBCF09F0220E2F
:10090000DBCF0AF00A34000E0A1809E6D880000E80
:100910000754000E0854000E0954000E0A5401E357
:1009200081D0190EDBCF18F01A0EDBCF19F01A6A3E
:100930001B6A150EDBCF1CF0160EDBCF1DF01E6AF6
:100940001F6A18501C24146E19501D20156E1A5061
:100950001E20166E1B501F20176E820E0B6E030E8C
:100960000C6E0D6A0E6A14C006F015C007F016C0B2
:1009700008F017C009F0E1EC1FF002C014F003C04A
:1009800015F004C016F005C017F0E80E0B6E030E4C
:100990000C6E0D6A0E6A14C006F015C007F016C082
:1009A00008F017C009F099EC1EF006C014F007C05B
:1009B00015F008C016F009C017F0580E0B6E020EA5
:1009C0000C6E0D6A0E6A14C006F015C007F016C052
:1009D00008F017C009F0E1EC1FF002C014F003C0EA
:1009E00015F004C016F005C017F014C006F015C0CD
:1009F00007F016C008F017C009F01F0EDBCF0BF090
:100A0000200EDBCF0CF0210EDBCF0DF0220EDBCF62
:100A10000EF099EC1EF0170E06C0DBFF180E07C093
:100A2000DBFF3AD0190EDBCF14F01A0EDBCF15F036
:100A3000166A176A150EDBCF18F0160EDBCF19F009
:100A40001A6A1B6A14501824066E15501920076E76
:100A500016501A20086E17501B20096E820E0B6E5E
:100A6000030E0C6E0D6A0E6AE1EC1FF002C006F078
:100A700003C007F004C008F005C009F0E80E0B6ED3
:100A8000030E0C6E0D6A0E6A99EC1EF0170E06C06E
:100A9000DBFF180E07C0DBFF000EE66EE66AE66EAF
:100AA000E66AD2EC0BF0E552E552E552E552020E51
:100AB000E66EE66A050EE66EE66A170EDBCFE6FF27
:100AC000180EDBCFE6FFE5EC0CF0146E060EE15ECF
:100AD0001450070EE66EE66A000EE66EE66AD2EC89
:100AE0000BF0E552E552E552E552E40EDF6EDE52C0
:100AF000530EDD6E760EF36E020EF3CFDBFF2F0E7C
:100B0000F36E030EF3CFDBFF680EF36E040EF3CF2C
:100B1000DBFF050EDB6AD9CFE6FFDACFE6FF0EEC8E
:100B20000CF0E552E552000EE66EE66A010EE66E46
:100B3000E66AD2EC0BF0E552E552E552E552A8C464
:100B400006F0A9C407F0086A096AD90E0B6E050EF3
:100B50000C6E0D6A0E6AE1EC1FF002C006F003C0D5
:100B600007F004C008F005C009F0100E0B6E270E48
:100B70000C6E0D6A0E6A99EC1EF0170E06C0DBFFB4
:100B8000180E07C0DBFF020EE66EE66A050EE66E83
:100B9000E66A170EDBCFE6FF180EDBCFE6FFE5ECCB
:100BA0000CF0146E060EE15E1450070EE66EE66A57
:100BB000010EE66EE66AD2EC0BF0E552E552E55224
:100BC000E552E40EDF6EDE52530EDD6E760EF36EEE
:100BD000020EF3CFDBFF030EDB6AD9CFE6FFDACFDD
:100BE000E6FF0EEC0CF0E552E5520B0EE66EE66AFF
:100BF000010EE66EE66AD2EC0BF0E552E552E552E4
:100C0000E5520401080EA25D070EA3591DE2000E75
:100C1000E66EE66A040EE66EE66AA2C4E6FFA3C4C8
:100C2000E6FFE5EC0CF0146E060EE15E1450730E58
:100C3000DF6E010EDB6AD9CFE6FFDACFE6FF0EECFE
:100C40000CF0E552E5521CD0000EE66EE66A040E8A
:100C5000E66EE66AA4C4E6FFA5C4E6FFE5EC0CF088
:100C6000146E060EE15E14506D0EDF6E010EDB6A2F
:100C7000D9CFE6FFDACFE6FF0EEC0CF0E552E552F5
:100C8000AFD2020EBB5D04E0030EBB5D01E0E2D11A
:100C9000150EDBCF14F0160EDBCF15F00A0E145C28
:100CA000000E15581EE3000EE66EE66AE66EE66A72
:100CB000D2EC0BF0E552E552E552E552000EE66E3D
:100CC000E66A050EE66EE66A150EDBCFE6FF160E47
:100CD000DBCFE6FFE5EC0CF0146E060EE15E14507F
:100CE00009D1A2C414F0A3C415F03C0E0D6E0E6A17
:100CF00014C008F015C009F070EC20F004C014F026
:100D000005C015F01D0E14C0DBFF1E0E15C0DBFF65
:100D10000401580EA25D020EA3590BE21F0EA2C4DD
:100D2000DBFF200EA3C4DBFF210EDB6A220EDB6A91
:100D30001CD01D0EDBCF14F01E0EDBCF15F0580EAD
:100D40001426020E1522166A176A15AE02D016680E
:100D500017681F0E14C0DBFF200E15C0DBFF210E2D
:100D600016C0DBFF220E17C0DBFF150EDB6A160E66
:100D7000DB6A130EDB6A140EDB6A130EDBCF14F092
:100D8000140EDBCF15F01D0EDBCF16F01E0EDBCFE1
:100D900017F01650145C175015581CE2130EDBCFD9
:100DA000E9FF140EDBCFEAFFA10EE926000EEA22CE
:100DB000EF50146E156AD950150FE96EDACFEAFFBD
:100DC0001450EE261550ED22130EDB2A140E01E30B
:100DD000DB2AD3D7000EE66EE66AE66EE66AD2EC50
:100DE0000BF0E552E552E552E5521F0EDBCF07F05E
:100DF000200EDBCF08F0210EDBCF09F0220EDBCF77
:100E00000AF00A34000E0A1809E6D880000E0754CA
:100E1000000E0854000E0954000E0A5445E2150E47
:100E2000DBCF18F0160EDBCF19F0190EDB501824AB
:100E3000146E1A0EDB501920156E166A176A580EBA
:100E40000B6E020E0C6E0D6A0E6A14C006F015C011
:100E500007F016C008F017C009F0E1EC1FF002C05F
:100E600014F003C015F004C016F005C017F014C04C
:100E700006F015C007F016C008F017C009F01F0EE5
:100E8000DBCF0BF0200EDBCF0CF0210EDBCF0DF013
:100E9000220EDBCF0EF099EC1EF0170E06C0DBFF22
:100EA000180E07C0DBFF14D0150EDBCF16F0160EA0
:100EB000DBCF17F0190EDB501624146E1A0EDB5020
:100EC0001720156E170E14C0DBFF180E15C0DBFFC0
:100ED000010EE66EE66A050EE66EE66A170EDBCFD9
:100EE000E6FF180EDBCFE6FFE5EC0CF0146E060E05
:100EF000E15E1450200EDF6EDE52630EDD6E700E6A
:100F0000F36E020EF3CFDBFF6D0EF36E030EF3CF25
:100F1000DBFF200EF36E040EF3CFDBFF050EDB6A62
:100F2000D9CFE6FFDACFE6FF0EEC0CF0E552E55242
:100F3000000EE66EE66A010EE66EE66AD2EC0BF093
:100F4000E552E552E552E552000EE66EE66A050E00
:100F5000E66EE66AA8C4E6FFA9C4E6FFE5EC0CF07D
:100F6000146E060EE15E1450060EE66EE66A010E81
:100F7000E66EE66AD2EC0BF0E552E552E552E55238
:100F8000630EDF6EDE526F0EDD6E750EF36E020EB7
:100F9000F3CFDBFF6E0EF36E030EF3CFDBFF740EA9
:100FA000F36E040EF3CFDBFF050EDB6AD9CFE6FF4D
:100FB000DACFE6FF0EEC0CF0E552E5520B0EE66ED2
:100FC000E66A010EE66EE66AD2EC0BF0E552E552F7
:100FD000E552E5520401080EA25D070EA3591DE279
:100FE000000EE66EE66A040EE66EE66AA2C4E6FF4E
:100FF000A3C4E6FFE5EC0CF0146E060EE15E14509F
:10100000730EDF6E010EDB6AD9CFE6FFDACFE6FFA3
:101010000EEC0CF0E552E5521CD0000EE66EE66ACE
:10102000040EE66EE66AA4C4E6FFA5C4E6FFE5EC9E
:101030000CF0146E060EE15E14506D0EDF6E010EA4
:10104000DB6AD9CFE6FFDACFE6FF0EEC0CF0E55213
:10105000E552C6D0040EA25D000EA35955E3F29EE0
:10106000BB6BA26BA36BA46BA56BA66BA76BA86BEA
:10107000A96B130EDB6A140EDB6A130EDBCF14F0C0
:10108000140EDBCF15F03C0E145C000E155811E267
:10109000130EDBCFE9FF140EDBCFEAFFA10EE9262A
:1010A000000EEA22EF6A130EDB2A140E01E3DB2A9C
:1010B000E4D7130EDB6A140EDB6A130EDBCF14F0D9
:1010C000140EDBCF15F00A0E145C000E155818E252
:1010D000130EDBCFE9FF140EDBCFEAFF010ED89031
:1010E000E936EA36E806FBE1DD0EE926000EEA22E3
:1010F000EE6AED6A130EDB2A140E01E3DB2ADDD75C
:10110000F8EC0DF0F28E6CD0420EDF6EDE526F0EF8
:10111000DD6EF36E020EF3CFDBFF740EF36E030E83
:10112000F3CFDBFF690EF36E040EF3CFDBFF6E0E21
:10113000F36E050EF3CFDBFF670EF36E060EF3CFF3
:10114000DBFF130EDB6A140EDB6A130EDBCF14F029
:10115000140EDBCF15F0A251145CA35115581CE2FC
:10116000D9CF14F0DACF15F0130EDBCF16F0140E32
:10117000DBCF17F0070E1626000E17221450162488
:10118000E96E15501720EA6E2E0EEF6E130EDB2A55
:10119000140E01E3DB2AD9D7D9CF14F0DACF15F03A
:1011A000070E176AA225166EA35117221450162493
:1011B000E96E15501720EA6EEF6A000EE66EE66AD9
:1011C000E66EE66AD2EC0BF0E552E552E552E552E6
:1011D000D9CFE6FFDACFE6FF0EEC0CF0E552E55290
:1011E0000401A251010B02E0828201D0829222D13D
:1011F000E2EC00F01AEC02F0070EE66EE66A000E72
:10120000E66EE66AD2EC0BF0E552E552E552E552A5
:10121000040EE66EE66AA2C4E6FFA3C4E6FF67EC2E
:101220000CF0E552E552E552E5520401A251010BE2
:1012300002E0828201D082920C0EE66EE66A000E17
:10124000E66EE66AD2EC0BF0E552E552E552E55265
:10125000040EE66EE66AA6C4E6FFA7C4E6FF67ECE6
:101260000CF0E552E552E552E5520A0EE66EE66AEA
:10127000010EE66EE66AD2EC0BF0E552E552E5525D
:10128000E552040EE66EE66AB4C4E6FFB5C4E6FFB6
:1012900067EC0CF0E552E552E552E5520401000E10
:1012A000D880A655000EA75501E37FD0A6C414F040
:1012B000A7C415F0166A176AAEC406F0AFC407F0EB
:1012C000B0C408F0B1C409F014C00BF015C00CF0A4
:1012D00016C00DF017C00EF099EC1EF01F0E06C0E0
:1012E000DBFF200E07C0DBFF210E08C0DBFF220E54
:1012F00009C0DBFFA6C41CF0A7C41DF01E6A1F6A4C
:10130000AAC406F0ABC407F0ACC408F0ADC409F041
:101310001CC00BF01DC00CF01EC00DF01FC00EF065
:1013200099EC1EF006C018F007C019F008C01AF0BA
:1013300009C01BF01F0EDBCF20F0200EDBCF21F009
:10134000210EDBCF22F0220EDBCF23F020C006F0EF
:1013500021C007F022C008F023C009F01F0EDBCF28
:101360000BF0200EDBCF0CF0210EDBCF0DF0220EA8
:10137000DBCF0EF0E1EC1FF00250185C146E03504E
:101380001958156E04501A58166E05501B58176ED2
:10139000230E14C0DBFF240E15C0DBFF250E16C084
:1013A000DBFF260E17C0DBFF10D01F0EDB6A200EFE
:1013B000DB6A210EDB6A220EDB6A230EDB6A240E57
:1013C000DB6A250EDB6A260EDB6A000EE66EE66A35
:1013D000E66EE66AD2EC0BF0E552E552E552E552D4
:1013E000040EE66EE66A1F0EDBCFE6FF200EDBCFB3
:1013F000E6FF67EC0CF0E552E552E552E552050ECA
:10140000E66EE66A010EE66EE66AD2EC0BF0E55295
:10141000E552E552E552040EE66EE66A230EDBCF96
:10142000E6FF240EDBCFE6FF67EC0CF0E552E55259
:10143000E552E5520401A06BA16BA02B000EA12385
:10144000060E0001FB5D01E094D0400EE66E600EDA
:10145000E66E000EE66E08EC1DF0E552E552E55230
:10146000000801E386D0520E0001605D56E1F29E55
:101470000401BB6BA26BA36BA46BA56BA66BA76BE4
:10148000A86BA96B130EDB6A140EDB6A130EDBCF9D
:1014900014F0140EDBCF15F03C0E145C000E155842
:1014A00011E2130EDBCFE9FF140EDBCFEAFFA10E32
:1014B000E926000EEA22EF6A130EDB2A140E01E37E
:1014C000DB2AE4D7130EDB6A140EDB6A130EDBCFC4
:1014D00014F0140EDBCF15F00A0E145C000E155834
:1014E00018E2130EDBCFE9FF140EDBCFEAFF010E8B
:1014F000D890E936EA36E806FBE1DD0EE926000E73
:10150000EA22EE6AED6A130EDB2A140E01E3DB2AEF
:10151000DDD7F8EC0DF0F28E1ED0440E605D1BE1BD
:10152000A3C414F0156A1450616F0401A2510001A4
:10153000626FA9C414F0156A1450636F0401A851B6
:101540000001646FB7C414F0156A1450656F04018C
:10155000B6510001666F04010CBFFDD7400EE66E68
:10156000600EE66E000EE66ECEEC1CF0E552E55223
:10157000E552270EE15C02E2E16AE552E16EE552D6
:06158000E7CFD9FF1200C5
:0A158600D9CFE6FFE1CFD9FF020E36
:10159000E126FD0EDBCFDEFFDBCFDDFFD9CFE9FF9C
:1015A000DACFEAFF000ED880EE54000EED5405E2CB
:1015B000DF06010E01E2DB06F1D7020EE15C02E27A
:1015C000E16AE552E16EE552E7CFD9FF1200D9CFCB
:1015D000E6FFE1CFD9FFD950FD0FE96EFF0EDA200B
:1015E000EA6EEE50ED1006E08AB403D0040E8A10C5
:1015F000816E05D08AA403D0FB0E8A14816E080E7A
:101600008A10816EF00EE76EFB0EDBCF16F0FC0E3B
:10161000DBCF17F0E7501616176A0F0E8A14000179
:101620001610146E17C015F01450816E0A0EE66E77
:10163000E66AA9DFE552E552F70E8A14816E0A0EBA
:10164000E66EE66AA0DFE552E552080E8A10816E6A
:10165000FB0EDBCF16F0FC0EDBCF17F0040ED8909C
:1016600016361736E804FBE1F00E1616000E1716B4
:101670000F0E8A1400011610146E17C015F01450C6
:10168000816E0A0EE66EE66A7EDFE552E552F70EDF
:101690008A14816E0A0EE66EE66A75DFE552E5523F
:1016A000080E8A10816ED950FD0FE96EFF0EDA2008
:1016B000EA6EEE50ED1013E1D950FB0FE96EFF0E0C
:1016C000DA20EA6E010EEE1801E1ED5008E1B80EE5
:1016D000E66E0B0EE66E57DFE552E55237D0D95075
:1016E000FD0FE96EFF0EDA20EA6EEE50ED1013E109
:1016F000D950FB0FE96EFF0EDA20EA6E020EEE18EB
:1017000001E1ED5008E1B80EE66E0B0EE66E3BDF30
:10171000E552E5521BD0D950FD0FE96EFF0EDA20DD
:10172000EA6EEE50ED1012E1D950FB0FE96EFF0E9C
:10173000DA20EA6E030EEE1801E1ED5007E1B80E73
:10174000E66E0B0EE66E1FDFE552E552E552E7CF7F
:10175000D9FF1200D9CFE6FFE1CFD9FFD950FD0F55
:10176000E96EFF0EDA20EA6EEE50ED100CE00F0E7F
:10177000E66EE66A000EE66EE66A29DFE552E5529D
:10178000E552E5520BD00C0EE66EE66A000EE66EF0
:10179000E66A1DDFE552E552E552E552E552E7CF34
:1017A000D9FF1200D9CFE6FFE1CFD9FF020EE12623
:1017B000FD0EDB50010B04E0C00EDE6EDD6A03D0CF
:1017C000800EDE6EDD6A0F0EE76EFB0EDBCF16F0CD
:1017D000FC0EDBCF17F0E7501616176ADE50161016
:1017E000146EDD501710156E14C0DEFF15C0DDFF3E
:1017F000DECFE6FFDDCFE6FF000EE66EE66AE7DE4F
:10180000E552E552E552E552020EE15C02E2E16A80
:10181000E552E16EE552E7CFD9FF1200D9CFE6FFDE
:10182000E1CFD9FF040EE126FD0EDBCFE6FFFE0E71
:10183000DBCFE6FF19EC20F0E552E552020EF3CFC4
:10184000DBFF030EF4CFDBFFDE6ADD6ADECF14F0D0
:10185000DDCF15F0020EDBCF16F0030EDBCF17F055
:1018600015501718E8AE02D0173404D01650145C87
:101870001750155822E2FD0EDBCF16F0FE0EDBCF1F
:1018800017F0DE501624E96EDD501720EA6EEFCF18
:1018900014F0156A14BE156814C0E6FF15C0E6FF03
:1018A000010EE66EE66A93DEE552E552E552E55238
:1018B000DF2A010E01E3DB2AC9D7040EE15C02E254
:1018C000E16AE552E16EE552E7CFD9FF1200D9CFC8
:1018D000E6FFE1CFD9FF030EE126F36E010EF3CF51
:1018E000DBFF020EDB6A010EDBCF14F0020EDBCF52
:1018F00015F00001800E15145EE1FD0EDBCF16F031
:10190000FE0EDBCF17F0040E086E096A010EDBCF66
:101910000DF0020EDBCF0EF0CDEC1EF0065016C01F
:1019200014F017C015F005E0D89015321432E80411
:10193000FBE10F0E1414DF6EDFCF14F00A0EE76E1A
:101940001418E8AE02D0E73402D0E750145C03E28A
:10195000300EDF2602D0370EDF26010EDBCF14F06B
:10196000020EDBCF15F0FB0EDBCF16F0FC0EDBCF4B
:1019700017F015501718E8AE02D0173404D01650DF
:10198000145C1750155811E2DFCF14F0156A14BE1D
:10199000156814C0E6FF15C0E6FF010EE66EE66AA4
:1019A00016DEE552E552E552E552010EDB06020E67
:1019B00001E2DB0698D7030EE15C02E2E16AE55240
:1019C000E16EE552E7CFD9FF1200D9CFE6FFE1CFB4
:1019D000D9FF1A0EE126FB0EDBCF14F0FC0EDBCF95
:1019E00015F0100ED8801456000E1556160E14C0A1
:1019F000DBFF170E15C0DBFFFB0EDBCF08F0FC0E84
:101A0000DBCF09F0180E08C0DBFF190E09C0DBFFA1
:101A1000F90EDBCF14F0FA0EDBCF15F0153404E22B
:101A200014500008000E155406E2180EDB2A190E99
:101A300001E3DB2A0ED0F90EDBCF14F0FA0EDBCF78
:101A400015F00001800E151404E0F90EDB6AFA0EA1
:101A5000DB6AFD0EDBCFE6FFFE0EDBCFE6FF990E65
:101A6000146E410E156E166A14C0E6FF15C0E6FF2F
:101A700016C0E6FFD9CFE6FFDACFE6FFFAEC1EF09C
:101A8000176E070EE15E1750140EDB6A150EDB6A47
:101A9000140EDBCF14F0150EDBCF15F0180EDBCFD4
:101AA00016F0190EDBCF17F015501718E8AE02D05C
:101AB000173404D01650145C1750155801E38ED01B
:101AC000140EDBCF14F0150EDBCF15F0FB0EDBCFC1
:101AD00018F0FC0EDBCF19F0F90EDB50185C166E17
:101AE000FA0EDB501958176E1650141802E11750F1
:101AF00015180DE12E0EE66EE66A010EE66EE66A38
:101B000066DDE552E552E552E55262D03FD0140E53
:101B1000DBCF14F0150EDBCF15F0FB0EDBCF18F08A
:101B2000FC0EDBCF19F0F90EDB50185C166EFA0EC6
:101B3000DB501958176E1606000E175A1550171855
:101B4000E8AE02D0173404D01650145C1750155864
:101B50001DE3D9CF14F0DACF15F0160EDB501424A4
:101B6000E96E170EDB501520EA6EEF5020080EE1EB
:101B7000D9CF14F0DACF15F0160EDB501424E96E2D
:101B8000170EDB501520EA6E300EEF6ED9CF16F02F
:101B9000DACF17F0160EDB501624E96E170EDB5065
:101BA0001720EA6EEFCF14F0156A14BE156814C042
:101BB000E6FF15C0E6FF010EE66EE66A08DDE552B7
:101BC000E552E552E552160EDB2A170E01E3DB2A39
:101BD000140EDB2A150E01E3DB2A5AD71A0EE15C3C
:101BE00002E2E16AE552E16EE552E7CFD9FF120069
:101BF000010EE66EE66A000EE66EE66AE8DCE55285
:101C0000E552E552E5521200D9CFE6FFE1CFD9FF08
:101C1000020EE126939E939C939A939893969394A5
:101C2000FB0E8A14816E080E8A10816E300EE66EED
:101C3000750EE66EA8DCE552E5520F0E8A14816E31
:101C4000300E8A10816EE80EE66E030EE66E9BDCA7
:101C5000E552E552F70E8A14816E100EE66E270EDD
:101C6000E66E91DCE552E552080E8A10816EE80EB0
:101C7000E66E030EE66E87DCE552E552F70E8A1437
:101C8000816E100EE66E270EE66E7DDCE552E552A3
:101C9000080E8A10816EE80EE66E030EE66E73DCA7
:101CA000E552E552F70E8A14816E100EE66E270E8D
:101CB000E66E69DCE552E552080E8A10816E0F0E61
:101CC0008A14816E200E8A10816E0A0EE66EE66A14
:101CD0005ADCE552E552F70E8A14816E0A0EE66E62
:101CE000E66A51DCE552E552080E8A10816E280E34
:101CF000E66EE66A000EE66EE66A69DCE552E552DB
:101D0000E552E552060EE66EE66A000EE66EE66AFB
:101D10005EDCE552E552E552E552010EE66EE66AFA
:101D200019DDE552E552400EE66EE66A000EE66EFB
:101D3000E66A4DDCE552E552E552E5520E0EE66EDE
:101D4000E66A010EE66EE66A42DCE552E552E552CD
:101D5000E5521B0EE66EE66A010EE66EE66A37DCB9
:101D6000E552E552E552E552110EE66EE66A010EC5
:101D7000E66EE66A2CDCE552E552E552E552110EBC
:101D8000E66EE66A010EE66EE66A21DCE552E55291
:101D9000E552E552110EE66EE66A010EE66EE66A5F
:101DA00016DCE552E552E552E552110EE66EE66AA2
:101DB000010EE66EE66A0BDCE552E552E552E552AD
:101DC0001F0EE66EE66A010EE66EE66AE7EC0AF0C2
:101DD000E552E552E552E552000EE66EE66A010E66
:101DE000E66EE66AE7EC0AF0E552E552E552E552A6
:101DF0000E0EE66EE66A010EE66EE66AE7EC0AF0A3
:101E0000E552E552E552E5521B0EE66EE66A010E1A
:101E1000E66EE66AE7EC0AF0E552E552E552E55275
:101E2000110EE66EE66A010EE66EE66AE7EC0AF06F
:101E3000E552E552E552E552110EE66EE66A010EF4
:101E4000E66EE66AE7EC0AF0E552E552E552E55245
:101E5000110EE66EE66A010EE66EE66AE7EC0AF03F
:101E6000E552E552E552E5521F0EE66EE66A010EB6
:101E7000E66EE66AE7EC0AF0E552E552E552E55215
:101E80001F0EE66EE66A010EE66EE66AE7EC0AF001
:101E9000E552E552E552E552000EE66EE66A010EA5
:101EA000E66EE66AE7EC0AF0E552E552E552E552E5
:101EB0000E0EE66EE66A010EE66EE66AE7EC0AF0E2
:101EC000E552E552E552E5521B0EE66EE66A010E5A
:101ED000E66EE66AE7EC0AF0E552E552E552E552B5
:101EE000110EE66EE66A010EE66EE66AE7EC0AF0AF
:101EF000E552E552E552E552110EE66EE66A010E34
:101F0000E66EE66AE7EC0AF0E552E552E552E55284
:101F10001F0EE66EE66A010EE66EE66AE7EC0AF070
:101F2000E552E552E552E5521F0EE66EE66A010EF5
:101F3000E66EE66AE7EC0AF0E552E552E552E55254
:101F40001F0EE66EE66A010EE66EE66AE7EC0AF040
:101F5000E552E552E552E552000EE66EE66A010EE4
:101F6000E66EE66AE7EC0AF0E552E552E552E55224
:101F70000E0EE66EE66A010EE66EE66AE7EC0AF021
:101F8000E552E552E552E5521B0EE66EE66A010E99
:101F9000E66EE66AE7EC0AF0E552E552E552E552F4
:101FA000110EE66EE66A010EE66EE66AE7EC0AF0EE
:101FB000E552E552E552E5521F0EE66EE66A010E65
:101FC000E66EE66AE7EC0AF0E552E552E552E552C4
:101FD0001F0EE66EE66A010EE66EE66AE7EC0AF0B0
:101FE000E552E552E552E5521F0EE66EE66A010E35
:101FF000E66EE66AE7EC0AF0E552E552E552E55294
:102000001F0EE66EE66A010EE66EE66AE7EC0AF07F
:10201000E552E552E552E552000EE66EE66A010E23
:10202000E66EE66AE7EC0AF0E552E552E552E55263
:102030000E0EE66EE66A010EE66EE66AE7EC0AF060
:10204000E552E552E552E5521F0EE66EE66A010ED4
:10205000E66EE66AE7EC0AF0E552E552E552E55233
:102060001F0EE66EE66A010EE66EE66AE7EC0AF01F
:10207000E552E552E552E5521F0EE66EE66A010EA4
:10208000E66EE66AE7EC0AF0E552E552E552E55203
:102090001F0EE66EE66A010EE66EE66AE7EC0AF0EF
:1020A000E552E552E552E5521F0EE66EE66A010E74
:1020B000E66EE66AE7EC0AF0E552E552E552E552D3
:1020C0001F0EE66EE66A010EE66EE66AE7EC0AF0BF
:1020D000E552E552E552E552000EE66EE66A010E63
:1020E000E66EE66AE7EC0AF0E552E552E552E552A3
:1020F000010EE66EE66AE66EE66AE7EC0AF0E55285
:10210000E552E552E552030EE66EE66A010EE66E12
:10211000E66AE7EC0AF0E552E552E552E5521D0E9B
:10212000E66EE66A010EE66EE66AE7EC0AF0E55254
:10213000E552E552E552150EE66EE66A010EE66ED0
:10214000E66AE7EC0AF0E552E552E552E5521D0E6B
:10215000E66EE66A010EE66EE66AE7EC0AF0E55224
:10216000E552E552E552030EE66EE66A010EE66EB2
:10217000E66AE7EC0AF0E552E552E552E552010E57
:10218000E66EE66AE66EE66AE7EC0AF0E552E552CC
:10219000E552E552000EE66EE66A010EE66EE66A6C
:1021A000E7EC0AF0E552E552E552E552140EE66E10
:1021B000E66A010EE66EE66AE7EC0AF0E552E552E1
:1021C000E552E552080EE66EE66A010EE66EE66A34
:1021D000E7EC0AF0E552E552E552E552150EE66EDF
:1021E000E66A010EE66EE66AE7EC0AF0E552E552B1
:1021F000E552E552030EE66EE66A010EE66EE66A09
:10220000E7EC0AF0E552E552E552E5521D0EE66EA6
:10221000E66A010EE66EE66AE7EC0AF0E552E55280
:10222000E552E5521D0EE66EE66A010EE66EE66ABE
:10223000E7EC0AF0E552E552E552E552030EE66E90
:10224000E66A010EE66EE66AE7EC0AF0E552E55250
:10225000E552E552010EE66EE66AE66EE66AE7ECE6
:102260000AF0E552E552E552E552020EE66EE66AE4
:10227000000EE66EE66AE7EC0AF0E552E552E5523A
:10228000E552020EE15C02E2E16AE552E16EE552DE
:06229000E7CFD9FF1200A8
:0A22960087EC16F0FB0EDBCFF3FF20
:1022A000DB06F35000090AE0D5EC16F0FA0E40EC1C
:1022B00017F0F3E1151CF1E1010E01D0000EB6EFAD
:1022C00016F087EC16F03B0EE12402E3E168E652DB
:1022D000E16E010EDB6A020EDB6AF90EDBCFF6FF60
:1022E000FA0EDBCFF7FFFB0EDBCFF8FF0800F5504F
:1022F000DF6EDF5002E1DAEF15F0250EDF5C02E061
:10230000CDEF15F0030EDB6A040EDB6A050EDB6A07
:10231000060EDB6A070EDB6AEFEC15F02D0EDF5CB4
:102320000CE02B0EDF5C09E0200EDF5C06E0230EE4
:10233000DF5C03E0300EDF5C1AE1DF50300A14E0AE
:10234000130A0FE0030A0AE00B0A05E0060AE4E1BB
:10235000030EDB80E1D7030EDB82DED7030EDB84C6
:10236000DBD7030EDB86D8D7030EDB88D5D72A0E42
:10237000DF5C1BE1EBEC15F039EC16F010E0030E1E
:10238000DB8008680968130EDBCF0DF0140EDBCF7D
:102390000EF0CDEC1EF0040E06C0DBFF03D0130ED2
:1023A00022EC16F0EFEC15F00BD0090EDB6A90EC86
:1023B00016F003E004EC17F0FAD7090E22EC16F041
:1023C000030EDBB0DB982E0EDF5C1BE1EFEC15F0AB
:1023D0002A0EDF5C0BE1EBEC15F039EC16F003E1B3
:1023E000130E74EC16F0EFEC15F00BD0090EDB6A4F
:1023F00090EC16F003E004EC17F0FAD7090E74EC39
:1024000016F0680EDF5C07E1EFEC15F0680EDF5C9C
:102410001DE1030E18D0740EDF5C17E07A0EDF5C4E
:1024200014E0480EDF5C06E0540EDF5C03E05A0E59
:10243000DF5C02E1020E07D06C0EDF5C03E06A0E87
:10244000DF5C04E1010EC7EC16F0C9DBDF506E0A59
:1024500001E17FD31E0A01E192D1200A01E18FD16F
:102460003F0A01E149D11A0A01E146D10D0A01E111
:1024700043D1200A01E140D13A0A01E13DD1200ACD
:1024800001E13AD1260A01E135D10D0A01E132D14B
:102490001A0A01E1D9D0200A4AE0300A1FE0460AB0
:1024A0000EE0250A01E083D3D950F90FE96EFF0E43
:1024B000DA20EA6E010EEE5E000EEE5AEE5AD5EC10
:1024C00016F0250EE66E95DB03E1151C01E169D3DC
:1024D000D1EC16F001E26BD3DB2A69D3080EDB6A7C
:1024E000040EDB50010806E2040EDB0499EC16F042
:1024F000DB508BDB080EDB5009E0030EDB50010BD9
:1025000005E172DB01E04DD3080EDB6A64DBEFCF3F
:10251000DFFF49EC17F003E1151C01E142D3D1ECD8
:1025200016F001E3DB2A60DB01E141D33AD3070E69
:10253000DB5002080FE115EC17F0030EDCEC16F08F
:102540000E0EEECFDBFF0F0EEECFDBFF100EEECF49
:10255000DBFF20D0F70EDBCF17F0F80EDBCF18F043
:10256000020E175E000E185AF70E17C0DBFFF80EAA
:1025700018C0DBFF17C0E9FF18C0EAFFCCEC16F06B
:10258000166A0E0E14C0DBFF0F0E15C0DBFF100E17
:1025900016C0DBFF0E0EDBCFE6FF0F0EDBCFE6FF34
:1025A000100EDBCFE6FF27EC20F0E552E552E552B6
:1025B000130E07C0DBFF140E08C0DBFF060EDB5056
:1025C00005E0130E10EC17F001E26ADB34EC17F0B3
:1025D00002E2130E37DBF7EC16F006E0040E10EC07
:1025E00017F002E2050E2EDB030EDBB005D0FCDA9D
:1025F00001E0D7D2080EDB6A090EDB6A0E0EDBCFD4
:10260000F6FF0F0EDBCFF7FF100EDBCFF8FF080051
:10261000F550DF6EDF5014E03AEC17F011E249ECB0
:1026200017F003E1151C01E1BCD2BBDB01E3DB2A9F
:10263000090EDB2AD9500E0FE96E000ECBDBE7D76F
:10264000D3DA01E1B4D2ADD2C6DA110EEECFDBFFA0
:10265000120EEDCFDBFF110EDBCFE6FF120EDBCF4C
:10266000E6FF19EC20F0E552E552130EF3CFDBFF45
:10267000140EF4CFDBFF060EDB5004E0130ED0DBAC
:1026800001E20EDB34EC17F002E2130EDBDAAFDB13
:1026900005E0040EC5DB02E2050ED4DA030EDBB062
:1026A00005D0A2DA01E07DD2080EDB6A090EDB6AF2
:1026B000110EDBCFE9FF120EDBCFEAFFEFCFDFFF1A
:1026C000DF5014E0D7DB12E2E4DB03E1151C01E18B
:1026D00068D267DB01E3DB2A090EDB2A110EDB2A55
:1026E000DBCFE9FF120EE8E3DB2AE6D77DDA01E172
:1026F0005ED257D2030EDB8E070EDB0410E195DBB2
:10270000040E5ADB0A0EEECFDBFF0B0EEECFDBFF23
:102710000C0EEECFDBFF0D0EEECFDBFF6CD0070E05
:10272000DB5003082CE1030EDBAE0DD0B2DA020E53
:1027300076DAEFCF14F0156A166A176A14AE39D03C
:102740001568166835D0F70EDBCF15F0F80EDBCF25
:1027500016F0020E155E000E165AF70E15C0DBFFBE
:10276000F80E16C0DBFF15C0E9FF16C0EAFFEFCF79
:1027700014F00A0E14C0DBFF0B0EDB6A38D0070E14
:10278000DB50020809E1030EDBAE04D059DB16AEC4
:1027900010D00ED055DB0DD0030EDBAE12D079DA9F
:1027A000020E3DDAF9DA166A176A15AE02D016681B
:1027B0001768E2DA0C0E16C0DBFF0D0E17C0DBFF48
:1027C0001AD0F70EDBCF16F0F80EDBCF17F0020EA3
:1027D000165E000E175AF70E16C0DBFFF80E17C074
:1027E000DBFF16C0E9FF17C0EAFFD6DAC5DA0C0E28
:1027F000DB6A0D0EDB6A060EDB5005E1010EF36E9F
:10280000050EF3CFDBFF150EDB6A160EDB6AD9501F
:10281000370F146E000EDA20156E390E14C0DBFF70
:102820003A0E15C0DBFF380EDB6A080EDB6A0A0EB3
:10283000AEDADF50780A12E0200A10E0280A0CE035
:10284000200A0AE03F0A06E00D0A02E0200A08E139
:10285000020E05D0080E03D0080EDF26100E97DA00
:10286000030EDBBE02D0DB92DB94DB50800B24E056
:102870008ADAD890030EEB50000A08E6000EEE5CF0
:10288000000EEE58000EEE58000EEE5815E213DA68
:102890000B680C680D680E68E1EC1FF00A0E02C0B0
:1028A000DBFF0B0E03C0DBFF0C0E04C0DBFF0D0EC5
:1028B00005C0DBFF2D0E08D0030EDBA202D02B0ECD
:1028C00003D0DBA408D0200EF36E170EF3CFDBFF8E
:1028D000150EDB2A02D0170EDB6A050EDB5003E172
:1028E000B7D901E189D0880E146E410E156E000E25
:1028F000166E070EDBCF17F0186A196A1A6A17C02E
:102900000BF018C00CF019C00DF01AC00EF0D3D99E
:102910004CEC20F014500224F36E15500320F46E9A
:1029200016500420F86EF4CFF7FFF3CFF6FF08003F
:10293000090EF5CFDBFF580EDF5C0FE1610EF36E81
:10294000090E7BD90AE3200E146E090EDBCFE7FFD8
:102950001450E75E090EE7CFDBFF070EDBCF14F064
:10296000156A166A176A0FDA14C00BF015C00CF05E
:1029700016C00DF017C00EF0EECF06F0EECF07F048
:10298000EECF08F0EFCF09F04CEC20F009C0EDFFDE
:1029900008C0EDFF07C0EDFF06C0EFFF390EDBCF2B
:1029A000E9FFDB063A0EDBCFEAFF01E2DB06090EA8
:1029B000DBCFEFFF150EDB2A4BD995E1030EDBA62B
:1029C0001DD06F0EDF5C06E1C1D918E3150EDB28C0
:1029D0005BDA14D0780EDF5C09E0580EDF5C06E0AD
:1029E000620EDF5C03E0420EDF5C08E1020EF36E74
:1029F000160EF3CFDBFF02D0150EDB6A030EDB50A1
:102A0000100B0EE0040EDBCF14F0050EDB50D88067
:102A1000145406E2060EDB5003E1040EDB5034DAF8
:102A200095D90AE2050EDBCFE7FF150EDB50E75E16
:102A3000050EE7CFDBFF02D0050EDB6A040EDBCF0D
:102A400014F0160E45D9D880145414E2160EDBCFBC
:102A5000E6FF150EDBCFE6FF040EDBCFE6FF050E2B
:102A6000DB50E552E75CE552D880E754E552D88068
:102A7000E7545FD9030EDB50010B0BE1080EDB506E
:102A800008E0B2D801E08DD0080EDB50BED8080EA9
:102A9000DB6A170EDB5007E088D9170EF1D903E186
:102AA000151C01E17ED0160EDB5016E07ED9300EEB
:102AB000E66E9FD802E1151C74E077D9DFCFE6FF00
:102AC0009FEC1FF0E552E552E552F4CF15F00001FE
:102AD000F31C02E1151C65E0050EDBCF14F0160EA9
:102AE000DB50D880145409E2050EDBCFE7FF160E49
:102AF000DB50E75E050EE7CFDBFF300EE66E050E1E
:102B0000CBD94FE1390EDB2ADBCFE9FF3A0E01E3E7
:102B1000DB2ADBCFEAFF090EEFCFDBFFDB500EE055
:102B200044D9090EADD902E1151C3BE0390EDB2A70
:102B3000DBCFE9FF3A0EEDE3DB2AEBD755D831E1E5
:102B4000160EDBCFE6FF080EC3D8E552E7245DD8AA
:102B50002ED0070EDB50030A1CE0010A14E0030A22
:102B600007E07BD9DBCFEEFF020EDBCFEDFF1FD0FE
:102B7000F5D8196A17AE02D0186819682CD8BCD8D5
:102B800019C0EEFF14D0EAD817BE186824D8B4D8FC
:102B90000ED063D9DBCFEFFF0AD07BD905E1151C3E
:102BA00003E1F368F46810D0FCD801E3DB2A79D99B
:102BB00076EF11F0010EDBCF14F0020EDBCF15F033
:102BC00014C0F3FF15C0F4FF3B0EE15C02E2E16AC2
:102BD000E552E16ECBD029D9020EDCEF16F061D9B7
:102BE0000800F550DF6E1200200EE66E080E4CEF66
:102BF00017F09FEC1FF0E552E552E552F3CF14F0C9
:102C0000F4CF15F00001F31C1200146E156AD950B0
:102C1000010F4DD91450EE261550ED221200185E0A
:102C2000000E195AF70E18C0DBFFF80E19C0DBFFB3
:102C300018C0E9FF19C0EAFF1200DBCFF4FFF35020
:102C4000F45C1200DB50E76E040EE7CFDBFF1200EE
:102C50000A0EDBCF14F00B0EDBCF15F00C0EDBCF22
:102C600016F00D0EDBCF17F01450151016101710BC
:102C70001200130EEECFDBFF140EEDCFDBFF130EB1
:102C8000DBCF14F0140EDBCF15F00001800E15140D
:102C90001200F70EDBCF18F0F80EDBCF19F01200A0
:102CA000050EDB50E66ED950130F01D9E552E750FF
:102CB000EE6EED6A12000A0EDBCF06F00B0EDBCFD4
:102CC00007F00C0EDBCF08F00D0EDBCF09F0120081
:102CD000DBCFE6FF150EDBCFE6FF050EDB50E5523E
:102CE000E724E552E7241200DB50CED8010EF36E44
:102CF000060EF3CFDBFF1200EE50EFCFEAFFE96ED6
:102D000016C0EEFF17C0EEFF18C0EEFF1200D9CFBD
:102D1000E6FFDACFE6FFE1CFD9FFE2CFDAFF12001C
:102D2000DFCFE6FFE66A86EC20F0E552E552F3508D
:102D30001200E76E080EE7CFDBFF1200EECF14F0B3
:102D4000EECF15F0EFCF16F0176A1200050EDBCFAD
:102D500014F0150EDB50D88014541200010EDBCF96
:102D600016F0020EDBCF17F0186A1200E552E5CF1D
:102D7000DAFFE7CFD9FF12000A0E14C0DBFF0B0EFB
:102D800015C0DBFF1200D9500A0F57EF17F0F36E92
:102D9000070EF3CFDBFF1200EECF14F0EFCF15F0EC
:102DA0001200010EDB2A020E1200FC0EDBCFE6FF42
:102DB000FD0EDBCFE6FF1200145E000E155AF70E73
:102DC00014C0DBFFF80E15C0DBFF14C0E9FF15C00F
:102DD000EAFF1200DA20EA6EEF2AEECFF6FF000ECD
:102DE000EF22EECFF7FFEF22EECFF8FF1200040E36
:102DF000DBCFE6FF130EDB50E552E75C9ADFDB50DA
:102E000004DF060EDB501200090EDB500A0DF350F2
:102E1000DF24D00FE76E090EE7CFDBFFEFEF15F0F1
:102E2000DB50F36E050E1DEF16F0F70EDBCF14F03E
:102E3000F80EDBCF15F01200DFCFE6FFF9EF15F04B
:102E400028DF030EECDE9EEF16F04BEC11F0E5529E
:102E5000E552E552E55200091200BDDEEE50EFCF1B
:102E6000EAFFE96E010E1200130EDB50F36E040E42
:102E70001DEF16F0040EDB50F36E090E1DEF16F079
:102E8000DBCFE6FFF9EF15F0E76E050EE7CFDBFFCE
:102E900012008BDF1CEF17F0DBCFE6FF86DF25EF9C
:102EA00017F0D950F90FE96EFF0EEAEF16F0E96E50
:082EB000000EDA20EA6E1200A8
:082EB800DACFE4FFE2CFDAFFFC
:102EC000E9CFE4FFEACFE4FFF3CFE4FFF4CFE4FF80
:102ED00000EE00F0140EE80403E3EECFE4FFFBD7AE
:102EE000E652D9CFE6FFE1CFD9FF020EE126C2B20A
:102EF000FED7C450266E26C027F0266AC3500001B4
:102F00002610246E27C025F024C0DEFF25C0DDFF7B
:102F1000C284C282C2B2FED7C450246E24C025F03F
:102F2000246AC35004012410B66F25C0B7F4D9CF6A
:102F3000E9FFDACFEAFFB651EE5EB751ED5AC2941F
:102F40000401B85120E0DECF24F0DDCF25F0253498
:102F500004E224502008000E255402E263D012D06F
:102F6000DECF24F0DDCF25F0D890255004E6040E06
:102F7000245C000E255802E255D004D00401A62B93
:102F8000000EA72346D0DECF24F0DDCF25F0266A41
:102F9000276A25AE02D02668276824500401AE2790
:102FA0002550AF232650B0232750B123DECF28F081
:102FB000DDCF29F02A6A2B6A29AE02D02A682B6855
:102FC000DECF24F0DDCF25F0266A276A25AE02D0B9
:102FD0002668276824C006F025C007F026C008F040
:102FE00027C009F028C00BF029C00CF02AC00DF052
:102FF0002BC00EF0E1EC1FF002500401AA27035091
:10300000AB230450AC230550AD230401A62B000EC6
:10301000A7230401B95106E0CA84BD86BD84CF6AE6
:10302000CE6ACD80020EE15C02E2E16AE552E16E19
:10303000E552E7CFD9FFE55200EE13F0140EE80495
:1030400003E3E5CFEDFFFBD7E5CFF4FFE5CFF3FFDB
:10305000E5CFEAFFE5CFE9FFE5CFDAFF1100D8CFF2
:10306000E4FFE0CFE4FFE46EDACFE4FFE2CFDAFF83
:10307000E9CFE4FFEACFE4FFF6CFE4FFF7CFE4FFC8
:10308000F3CFE4FFF4CFE4FFFACFE4FF00EE00F06B
:10309000140EE80403E3EECFE4FFFBD7E652D9CFEA
:1030A000E6FFE1CFD9FF080EE126F2A4A0D004018B
:1030B000B85101E197D0670ED76E6A0ED66EA2C4E2
:1030C0002CF0A3C42DF03C0E0D6E0E6A2CC008F03F
:1030D0002DC009F070EC20F004C02CF005C02DF0DC
:1030E0002CC0DEFF2DC0DDFFDECFE9FFDDCFEAFF24
:1030F000A10EE926000EEA22A6C4EFFF0401A651A4
:103100000401A8270401A7510401A9230401A66B07
:10311000A76BD9CFE9FFDACFEAFF3B0EEE1801E14A
:10312000ED5060E1A4C42CF0A5C42DF00A0E0D6E84
:103130000E6A2CC008F02DC009F070EC20F004C01D
:103140002CF005C02DF0020E2CC0DBFF030E2DC0AD
:10315000DBFF060EDB6A070EDB6A040EDB6A050E78
:10316000DB6A040EDBCF2CF0050EDBCF2DF0D89000
:103170002D5004E63C0E2C5C000E2D581CE2040E73
:10318000DBCFE9FF050EDBCFEAFFA10EE926000E3B
:10319000EA22EF502C6E2D6AD950060FE96EDACF75
:1031A000EAFF2C50EE262D50ED22040EDB2A050EF0
:1031B00001E3DB2AD6D7020EDBCFE9FF030EDBCF1C
:1031C000EAFFD890E936EA36DD0EE926000EEA225B
:1031D000060EDBCFEEFF070EDBCFEDFF0401A42BC5
:1031E000000EA523F2940401A22B000EA3239EA09F
:1031F00005D09E90CD90CA94BD96BD94080EE15C1A
:1032000002E2E16AE552E16EE552E7CFD9FFE5520D
:1032100000EE13F0140EE80403E3E5CFEDFFFBD757
:10322000E5CFFAFFE5CFF4FFE5CFF3FFE5CFF7FFFA
:10323000E5CFF6FFE5CFEAFFE5CFE9FFE5CFDAFF1F
:10324000E550E5CFE0FFE5CFD8FF100005D810D856
:10325000CBEC02F0FCD712000F0EC112140E6F6EF1
:103260000001FB6B0001FC6B0001FD6B16EF00F031
:0E32700048EC1DF06FBE02D067EC1DF012009E
:02327E00040149
:103280001051600BE842E842E842E842E842000997
:1032900001E055D01151070A51E00B0A4FE0070A2F
:1032A00040E0010A2CE00B0A28E0020A26E0030AAB
:1032B00022E0080A12E0010A0EE00F0A0AE0030AFF
:1032C00001E03CD00401010EBE6F0001040EFB6F53
:1032D00036D036D834D090D832D00401010EBE6F2B
:1032E0000401FD0EBF6F000EC06F0001FC930401CE
:1032F000010EC36F24D0A8D822D0F4D820D0040166
:10330000010EBE6F040114510401BF6FC06BFE0EAD
:10331000BF27000EC0230001FC930401010EC36F00
:103320000ED00401010EBE6F04011451EA6AFE0FB3
:10333000E96E000EEA2212C4EFFF01D000D01200A5
:10334000800E0401105D57E11351030A34E0010AB5
:1033500010E0030A01E04DD00401010EBE6F04012C
:10336000160EBF6F3C0EC06F120E0401C36FC46B0C
:1033700040D00401010EBE6F04011251F66EF76ACF
:10338000D890F636F736240EF6263D0EF7220900C1
:10339000F5CFBFF40A00F5CFC0F4020E0401F76ABE
:1033A000BF25F66EC051F7220900F5CFC3F40A001D
:1033B000F5CFC4F41ED00401010EBE6F04011251FA
:1033C000F66EF76AD890F636F736280EF6263D0EDA
:1033D000F7220900F5CFBFF40A00F5CFC0F4BFC44F
:1033E000F6FFC0C4F7FF0800F5500401C36FC46BBB
:1033F00000D00001FC8312000401010EBE6F0F0E0D
:10340000E66E710EE66E0F0EE66EF6EC1DF0E552FE
:10341000E552E552010EE66EFE0EE66E000EE66E19
:10342000F6EC1DF0E552E552E55212C4FDF0040140
:10343000125104E10001050EFB6F05D00001060EDC
:10344000FB6FB9EC1CF012000401186B196B04013E
:1034500010511F0B020A14E0030A0EE0010A01E0FA
:1034600033D00401010EBE6F040118810001FCA1DC
:1034700002D00401188328D00401010EBE6F24D0AD
:103480000401010EBE6F040114510F0B080DF3501F
:10349000156A000F146E040E15221451800B01E002
:1034A000010E040DF35004011424C16F000E152009
:1034B000C26FC1C4E9FFC2C4EAFFEF50040B03E0CE
:1034C0000401010E186F00D00401BE050AE10401D9
:1034D000180EBF6F040EC06F0001FC930401020EB2
:1034E000C36F12000401120510E110511F0B0009F7
:1034F0000CE10401010EBE6F030E0401115D03E136
:103500000001FC8102D00001FC91040112513AE15A
:1035100010511F0B020836E114510F0B000932E065
:103520000401010EBE6F040114510F0B080DF3507E
:10353000156A000F146E040E15221451800B01E061
:10354000010E040DF35004011424C16F000E152068
:10355000C26F030E0401115D07E1840EC1C4E9FFCF
:10356000C2C4EAFFEF6E0ED014AF06D0C1C4E9FFAB
:10357000C2C4EAFFEF6A06D0880EC1C4E9FFC2C424
:06358000EAFFEF6E1200ED
:0A3586006C500BE1040100513C0BF6
:10359000E842E8420D0802E108D801D03CD804D046
:1035A000040E6C5C01E147D81200D9CFE6FFE1CFF1
:1035B000D9FFE6520401BD6BBE6BC36BC46B3FEC1D
:1035C00019F0DF6ADF50146E156A010E145C000EEC
:1035D00015581BE20401BE5101E017D0F76ADF3431
:1035E000FE0BF736F66E300EF6263D0EF72209007A
:1035F000F5CF14F00800F5CF15F004D015C0FAFF90
:103600001450F96EFBDFDF2ADDD7DDD8E552E55235
:10361000E7CFD9FF1200020E0401BD5D0AE196D882
:10362000040100BD03D0C80E006F02D0880E006FE9
:1036300001D00FD91200040E0001FB5D0AE112C493
:103640006EFF6E50000803E2050EFB6F02D0030E02
:10365000FB6F0401BD050AE10BD8040104BD03D0D2
:10366000C80E046F02D0880E046F01D0F2D8120089
:10367000D9CFE6FFE1CFD9FF020EE1260401080E03
:10368000C35D000EC45905E2C3C4DEFFC4C4DDFF40
:1036900003D0080EDE6EDD6A040104930491010E6E
:1036A000DB500413DFCF05F4000EDB500401C35FD1
:1036B000010EDB50C45B180EC16F040EC26F000117
:1036C000FCA31ED0D9CFE9FFDACFEAFFEE50ED1010
:1036D00016E0BFC4F6FFC0C4F7FF0800F550C1C430
:1036E000E9FFC2C4EAFFEF6E0401C12B000EC22342
:1036F000BF2BC023DF06010E01E2DB06E3D71CD09F
:10370000D9CFE9FFDACFEAFFEE50ED1015E0BFC4E4
:10371000E9FFC0C4EAFFEF50C1C4E9FFC2C4EAFF39
:10372000EF6E0401C12B000EC223BF2BC023DF06A6
:10373000010E01E2DB06E4D7020EE15C02E2E16A7F
:10374000E552E16EE552E7CFD9FF1200D9CFE6FF8F
:10375000E1CFD9FF020EE126030E04010015E76E4A
:10376000010EE7CFDBFF01C4DFFFDE500401C327FA
:10377000DD50C423180EBF6F040EC06FD9CFE9FF10
:10378000DACFEAFFEE50ED1014E0BFC4E9FFC0C489
:10379000EAFFEF50C1C4E9FFC2C4EAFFEF6EC12BDC
:1037A000000EC223BF2BC023DF06010E01E2DB06A1
:1037B000E5D7020EE15C02E2E16AE552E16EE55214
:1037C000E7CFD9FF12000401BE510CE10401080E3D
:1037D000016F100E026F040E036F840E006F040160
:1037E000046F35D0040110AF22D00401C35104018D
:1037F000165D0401C4510401175904E216C4C3F450
:1038000017C4C4F435DF0401010EBD6F0401080EB6
:10381000016F100E026F040E036F800E006F040123
:10382000180E066F040E076FC80E046F10D0040147
:10383000020EBD6F0401056BC80E046F0401080E73
:10384000016F180E026F040E036FC80E006F6D98A3
:1038500012000401BD6B0401080E016F100E026F0F
:0E386000040E036F880E006F0401046B12004B
:02386E00040153
:1038700010511F0B010801E079D0145101E076D0FE
:10388000060E115D2EE11351230A28E0010A13E010
:10389000030A01E024D00401020EBE6F0001FD0501
:1038A00005E104013A0EBF6F3C0EC06F090E040122
:1038B000C36FC46B14D00401020EBE6F0001FD057E
:1038C00005E10401070EBF6F3D0EC06F0001FD054D
:1038D00004E11D0E0401C36FC46B01D000D00001D0
:1038E000FC8304011051600BE842E842E842E842E0
:1038F000E842010801E03AD011510B0A31E0080A10
:1039000021E0090A19E0080A09E00B0A05E0080AA3
:1039100001E02CD02CD82AD02BD828D00401020EBC
:10392000BE6F0401C50EBF6F040EC06F0001FC9393
:103930000401010EC36F1AD00401020EBE6F13C43E
:10394000C5F414D00401020EBE6F0401C60EBF6F91
:10395000040EC06F0001FC930401010EC36F06D07A
:103960000401020EBE6F12C4C6F400D01200120091
:1039700012000401C76B1E0E716E0401400E096F28
:10398000200E0A6F040E0B6F880E086F0401600E84
:103990000E6F040E0F6F400E0C6F1200D9CFE6FFB2
:1039A000E1CFD9FFE652FC0EDB50400805E2400EA5
:1039B000F36EFC0EF3CFDBFFDF6AFC0EDB50DF5C47
:1039C00019E2DF50E76EFD0EDBCFE9FFFE0EDBCF25
:1039D000EAFFE750E926000EEA22EF50E66EDF50DC
:1039E000EA6A600FE96E040EEA22E552E750EF6ED4
:1039F000DF2AE3D7FC0EDBCF0DF4400E04010C17D9
:103A00000C7D880E0C13E552E552E7CFD9FF12006A
:103A1000D9CFE6FFE1CFD9FF0401C76B040108BF8E
:103A200030D0FC0EDBCF14F00951D880145403E2DF
:103A3000FC0E09C4DBFF0401C76BFC0EDB50C75D45
:103A400019E2C751EA6A200FE96E040EEA22EF502C
:103A5000E66EC751E76EFD0EDBCFE9FFFE0EDBCF52
:103A6000EAFFE750E926000EEA22E552E750EF6E42
:103A7000C72BE3D70401400E096F0817087D880E95
:103A800008130401C75100D0E552E7CFD9FF120057
:103A90006DA60FD802D06DB613D80001FB0508E162
:103AA0006DBA06D0686A696A69806988020EFB6F20
:103AB00012006D6A696A6D860001010EFB6F1200CB
:103AC0006D6A696A0001FB6B120060EF1DF0000176
:103AD000FB5101E13AD06850040B04E06950040B3B
:103AE00001E041D86DB231D06850010B04E069505B
:103AF000010B01E059D86850100B04E06950100B1D
:103B000001E024D86850400B04E06950400B01E00C
:103B100040D86850200B04E06950200B01E03BD8EE
:103B20006850020B04E06950020B01E03BD8030E21
:103B30000001FB5D01E209D06850080B06E0695006
:103B4000080B03E0C3EC1AF06896120069846898C9
:103B50006D82A19AF290A08AF2860300F2B007D893
:103B6000A09AF29612006D92699468941200000176
:103B7000FCA10ED0F8DF6D840401080EC86F070E9B
:103B8000C96FC807000EC95BC851C911FAE16D942D
:103B90001200689C120070A003D029EC1CF07090F9
:103BA000689A1200689212006A6A686A9F0E6B6EC9
:103BB0007B0E696E6E6A0F0EE66E710EE66E0F0E6C
:103BC000E66E14D8E552E552E552160E706E68A600
:103BD00002D06896FCD76D9829EC1CF00001FC918E
:103BE0000001FD6B0001030EFB6F1200D9CFE6FF51
:103BF000E1CFD9FFFD0EDBCFE9FFFE0EDBCFEAFF01
:103C0000FC0EDB5004E0EE6AFC0EDB06F9D7E55251
:063C1000E7CFD9FF12000E
:0A3C16001201000200000008D804AB
:103C200033000100010203020902290001010280A0
:103C30003209040000020300000009210100000114
:103C4000221D000705810340000107050103400014
:103C5000010902200001010280320904000002FF74
:103C60000000000705810340000107050103400033
:103C7000010403090434034D006900630072006FFE
:103C80000063006800690070002000540065006354
:103C90000068006E006F006C006F00670079002004
:103CA0000049006E0063002E0048035000490043A5
:103CB000006B00690074002000320020004D006994
:103CC00000630072006F0063006F006E007400728A
:103CD000006F006C006C00650072002000500072E4
:103CE000006F006700720061006D006D006500727A
:103CF00000160350004900430031003800460032EE
:103D0000003500350030000600FF0901A10119014E
:103D10002940150026FF00750895408102190129E8
:103D2000409102C0283C513C713C753CA93CF13C9F
:023D30006E38EB
:0E3D3200006AE86A0EAEA6EF1EF00B6C0C1EC7
:103D40000D1E0E1E0C220D220E22001E09AEB1EF1A
:103D50001EF0066C071E081E091E072208220922F3
:103D6000001E4CEC20F009BEC8EF1EF000AE000CA7
:103D7000066C071E081E091EE86A0722082209228F
:103D8000026C031E041E051E032204220522000CE1
:103D900000BEB8EF1EF00188FF0C09C013F008C088
:103DA00012F008500D02F4CF07F0F3CF06F00950DF
:103DB0000E02F4CF09F0F3CF08F00D02F3500726FE
:103DC000F4500822E86A092212500E02F350072626
:103DD000F4500822E86A09220EAEF3EF1EF01250EA
:103DE000085E1350095A13AE000C0D50085E0E50B9
:043DF000095A000C60
:0C3DF400D9CFE6FFDACFE6FFE1CFD9FF20
:103E0000E2CFDAFFE652E652E652E652D950F90F17
:103E1000146EFF0EDA20156E020E14C0DBFF030EC7
:103E200015C0DBFF020EDBCFE6FF030EDBCFE6FFA4
:103E3000F90EDBCFE6FFFA0EDBCFE6FFFB0EDBCFA2
:103E4000E6FFD950FC0FE66EFF0EDA20E66E61EC5D
:103E500011F0146E070EE15C02E2E16AE552E16ED8
:103E60001450F3CFDEFFF4CFDDFFFC0EDBCFE9FF14
:103E7000FD0EDBCFEAFFEF6ADECF14F0DDCF15F0E9
:103E800014C0F3FF15C0F4FF040EE15C02E2E16A26
:103E9000E552E16EE552E5CFDAFFE7CFD9FF120038
:103EA0001E0EF66E000EF76E000EF86E0001090091
:103EB000F550F66F0900F550F76F03E1F66701D092
:103EC0003DD00900F550F16F0900F550F26F09007F
:103ED000F550F36F09000900F550E96E0900F5503F
:103EE000EA6E090009000900F550F46F0900F55069
:103EF000F56F09000900F6CFF8F0F7CFF9F0F8CF29
:103F0000FAF0F1C0F6FFF2C0F7FFF3C0F8FF0001CE
:103F1000F45302E1F55307E00900F550EE6EF407A3
:103F2000F8E2F507F9D7F8C0F6FFF9C0F7FFFAC0D5
:0E3F3000F8FF0001F607000EF75BBFD7120086
:023F3E00D9CFD9
:103F4000E6FFDACFE6FFE1CFD9FFE2CFDAFFFB0EE3
:103F5000DBCF14F0FC0EDBCF15F00001800E151442
:103F60001AE1FB0EDBCFE9FFFC0EDBCFEAFFEECF61
:103F7000F3FFEDCFF4FFEE2A000EEF22F3CFE9FFBF
:103F8000F4CFEAFFFD0EDBCFEFFFEF50156AF36EC3
:103F900015C0F4FF10D0FB0EDB50FE0806E1FD0E4D
:103FA000DBCFE6FFB6EC20F005D0FD0EDBCFE6FF61
:103FB0000BEC00F0E552E552E5CFDAFFE7CFD9FF91
:023FC0001200ED
:0E3FC20006500B02F3CF02F0F4CF03F00C0216
:103FD000F3500326000EF420046E06500D02F35039
:103FE0000426000EF420056E06500E02F35005263E
:103FF00007500B02F3500326F4500422000E052252
:1040000007500C02F3500426F450052207500D020D
:10401000F350052608500B02F3500426F4500522F5
:1040200008500C02F350052609500B02F3500526E8
:0240300012007C
:0E403200FE0EE3CFE9FFFF0EE3CFEAFFF36AD5
:10404000F46AEE5203E0F34AF42AFBD71200FF0EA3
:10405000E3CFF8FFE552FF0EE3CFF7FFE552FF0E87
:10406000E3CFF6FFE552E66AE66AE66A0900F55232
:1040700009E0FD0EE32A05E1FE0EE32A02E1FF0E50
:10408000E32AF4D7FD0EE3CF07F0FE0EE3CF08F0EE
:08409000FF0EE3CF09F012005E
:08409800056A046A036A026A6A
:1040A000200EE76ED89006360736083609360236F7
:1040B0000336043605360B50025C0C5003580D5085
:1040C00004580E50055809E30B50025E0C50035A79
:1040D0000D50045A0E50055A062AE72EE4D7120056
:1040E000056A046A100EE76ED89008360936043661
:1040F00005360D50045C0E50055805E30D50045E66
:0C4100000E50055A082AE72EF0D71200D6
:04410C00F36AF46AF4
:10411000FF0EE124E96EFF0EE220EA6EED6607D0A5
:104120002F0EEF6404D03A0EEF6001D0F32A120094
:10413000000EF36E00EE00F0040E01D81200EA60EB
:1041400002D0EE6AFCD7F350E9601200EE6AFCD7A9
:1041500013EE00F023EE00F0F86A019C50EC1FF023
:0C41600003EC00F026EC19F0FBD7120075
:04416C00FF0EE3500F
:10417000ACBA04D0AF6AAB8EAC8A949CACA2FED72A
:08418000AD6EF36EF46A12004B
:08418800303132333435363793
:0941900038396162636465660060
:05419900253136750020
:02419E00FF031D
:1041A000000000000000000000000000000000000F
:0B41B00000000000FF7F010104000080
:020000040020DA
:080000007279757461000000C3
:020000040030CA
:010000002CD3
:010001000CF2
:010002003FBE
:010003001EDE
:0100050001F9
:010006008178
:010008000FE8
:01000900C036
:01000A000FE6
:01000B00E014
:01000C000FE4
:01000D0040B2
:02000004003FBB
:02FFFE000202FD
:00000001FF
